{
  "contractName": "MasoomContract",
  "abi": [
    {
      "constant": true,
      "inputs": [
        {
          "name": "",
          "type": "address"
        }
      ],
      "name": "voterDetails",
      "outputs": [
        {
          "name": "voterAddress",
          "type": "address"
        },
        {
          "name": "name",
          "type": "string"
        },
        {
          "name": "aadhar",
          "type": "string"
        },
        {
          "name": "constituency",
          "type": "string"
        },
        {
          "name": "hasVoted",
          "type": "bool"
        },
        {
          "name": "isVerified",
          "type": "bool"
        }
      ],
      "payable": false,
      "stateMutability": "view",
      "type": "function"
    },
    {
      "constant": true,
      "inputs": [
        {
          "name": "",
          "type": "uint256"
        }
      ],
      "name": "candidateDetails",
      "outputs": [
        {
          "name": "name",
          "type": "string"
        },
        {
          "name": "party",
          "type": "string"
        },
        {
          "name": "manifesto",
          "type": "string"
        },
        {
          "name": "voteCount",
          "type": "uint256"
        }
      ],
      "payable": false,
      "stateMutability": "view",
      "type": "function"
    },
    {
      "constant": true,
      "inputs": [],
      "name": "owner",
      "outputs": [
        {
          "name": "",
          "type": "address"
        }
      ],
      "payable": false,
      "stateMutability": "view",
      "type": "function"
    },
    {
      "constant": true,
      "inputs": [
        {
          "name": "",
          "type": "uint256"
        }
      ],
      "name": "voters",
      "outputs": [
        {
          "name": "",
          "type": "address"
        }
      ],
      "payable": false,
      "stateMutability": "view",
      "type": "function"
    },
    {
      "inputs": [],
      "payable": false,
      "stateMutability": "nonpayable",
      "type": "constructor"
    },
    {
      "constant": true,
      "inputs": [],
      "name": "getOwner",
      "outputs": [
        {
          "name": "",
          "type": "address"
        }
      ],
      "payable": false,
      "stateMutability": "view",
      "type": "function"
    },
    {
      "constant": false,
      "inputs": [
        {
          "name": "_name",
          "type": "string"
        },
        {
          "name": "_party",
          "type": "string"
        },
        {
          "name": "_manifesto",
          "type": "string"
        }
      ],
      "name": "addCandidate",
      "outputs": [],
      "payable": false,
      "stateMutability": "nonpayable",
      "type": "function"
    },
    {
      "constant": true,
      "inputs": [],
      "name": "getCandidateNumber",
      "outputs": [
        {
          "name": "",
          "type": "uint256"
        }
      ],
      "payable": false,
      "stateMutability": "view",
      "type": "function"
    },
    {
      "constant": false,
      "inputs": [
        {
          "name": "_name",
          "type": "string"
        },
        {
          "name": "_aadhar",
          "type": "string"
        },
        {
          "name": "_constituency",
          "type": "string"
        }
      ],
      "name": "requestVoter",
      "outputs": [],
      "payable": false,
      "stateMutability": "nonpayable",
      "type": "function"
    },
    {
      "constant": true,
      "inputs": [],
      "name": "getVoterCount",
      "outputs": [
        {
          "name": "",
          "type": "uint256"
        }
      ],
      "payable": false,
      "stateMutability": "view",
      "type": "function"
    }
  ],
  "bytecode": "0x6060604052341561000f57600080fd5b336000806101000a81548173ffffffffffffffffffffffffffffffffffffffff021916908373ffffffffffffffffffffffffffffffffffffffff16021790555060006001819055506000600281905550610db48061006e6000396000f30060606040523615610097576000357c0100000000000000000000000000000000000000000000000000000000900463ffffffff16806311174a291461009c578063364dff25146100c55780635938750d146100ee5780636247e53214610318578063893d20e8146104ea5780638da5cb5b1461053f578063ad71f8dc14610594578063ccc6983c14610677578063da58c7d91461075a575b600080fd5b34156100a757600080fd5b6100af6107bd565b6040518082815260200191505060405180910390f35b34156100d057600080fd5b6100d86107c7565b6040518082815260200191505060405180910390f35b34156100f957600080fd5b610125600480803573ffffffffffffffffffffffffffffffffffffffff169060200190919050506107d1565b604051808773ffffffffffffffffffffffffffffffffffffffff1673ffffffffffffffffffffffffffffffffffffffff16815260200180602001806020018060200186151515158152602001851515151581526020018481038452898181546001816001161561010002031660029004815260200191508054600181600116156101000203166002900480156101fc5780601f106101d1576101008083540402835291602001916101fc565b820191906000526020600020905b8154815290600101906020018083116101df57829003601f168201915b505084810383528881815460018160011615610100020316600290048152602001915080546001816001161561010002031660029004801561027f5780601f106102545761010080835404028352916020019161027f565b820191906000526020600020905b81548152906001019060200180831161026257829003601f168201915b50508481038252878181546001816001161561010002031660029004815260200191508054600181600116156101000203166002900480156103025780601f106102d757610100808354040283529160200191610302565b820191906000526020600020905b8154815290600101906020018083116102e557829003601f168201915b5050995050505050505050505060405180910390f35b341561032357600080fd5b6103396004808035906020019091905050610844565b604051808060200180602001806020018581526020018481038452888181546001816001161561010002031660029004815260200191508054600181600116156101000203166002900480156103d05780601f106103a5576101008083540402835291602001916103d0565b820191906000526020600020905b8154815290600101906020018083116103b357829003601f168201915b50508481038352878181546001816001161561010002031660029004815260200191508054600181600116156101000203166002900480156104535780601f1061042857610100808354040283529160200191610453565b820191906000526020600020905b81548152906001019060200180831161043657829003601f168201915b50508481038252868181546001816001161561010002031660029004815260200191508054600181600116156101000203166002900480156104d65780601f106104ab576101008083540402835291602001916104d6565b820191906000526020600020905b8154815290600101906020018083116104b957829003601f168201915b505097505050505050505060405180910390f35b34156104f557600080fd5b6104fd610871565b604051808273ffffffffffffffffffffffffffffffffffffffff1673ffffffffffffffffffffffffffffffffffffffff16815260200191505060405180910390f35b341561054a57600080fd5b61055261089a565b604051808273ffffffffffffffffffffffffffffffffffffffff1673ffffffffffffffffffffffffffffffffffffffff16815260200191505060405180910390f35b341561059f57600080fd5b610675600480803590602001908201803590602001908080601f0160208091040260200160405190810160405280939291908181526020018383808284378201915050505050509190803590602001908201803590602001908080601f0160208091040260200160405190810160405280939291908181526020018383808284378201915050505050509190803590602001908201803590602001908080601f016020809104026020016040519081016040528093929190818152602001838380828437820191505050505050919050506108bf565b005b341561068257600080fd5b610758600480803590602001908201803590602001908080601f0160208091040260200160405190810160405280939291908181526020018383808284378201915050505050509190803590602001908201803590602001908080601f0160208091040260200160405190810160405280939291908181526020018383808284378201915050505050509190803590602001908201803590602001908080601f016020809104026020016040519081016040528093929190818152602001838380828437820191505050505050919050506109d7565b005b341561076557600080fd5b61077b6004808035906020019091905050610bc6565b604051808273ffffffffffffffffffffffffffffffffffffffff1673ffffffffffffffffffffffffffffffffffffffff16815260200191505060405180910390f35b6000600254905090565b6000600154905090565b60056020528060005260406000206000915090508060000160009054906101000a900473ffffffffffffffffffffffffffffffffffffffff16908060010190806002019080600301908060040160009054906101000a900460ff16908060040160019054906101000a900460ff16905086565b60036020528060005260406000206000915090508060000190806001019080600201908060030154905084565b60008060009054906101000a900473ffffffffffffffffffffffffffffffffffffffff16905090565b6000809054906101000a900473ffffffffffffffffffffffffffffffffffffffff1681565b6108c7610c05565b6000809054906101000a900473ffffffffffffffffffffffffffffffffffffffff1673ffffffffffffffffffffffffffffffffffffffff163373ffffffffffffffffffffffffffffffffffffffff1614151561092257600080fd5b60806040519081016040528085815260200184815260200183815260200160008152509050806003600060015481526020019081526020016000206000820151816000019080519060200190610979929190610c40565b506020820151816001019080519060200190610996929190610c40565b5060408201518160020190805190602001906109b3929190610c40565b50606082015181600301559050506001806000828254019250508190555050505050565b6109df610cc0565b60c0604051908101604052803373ffffffffffffffffffffffffffffffffffffffff16815260200185815260200184815260200183815260200160001515815260200160001515815250905080600560003373ffffffffffffffffffffffffffffffffffffffff1673ffffffffffffffffffffffffffffffffffffffff16815260200190815260200160002060008201518160000160006101000a81548173ffffffffffffffffffffffffffffffffffffffff021916908373ffffffffffffffffffffffffffffffffffffffff1602179055506020820151816001019080519060200190610ace929190610c40565b506040820151816002019080519060200190610aeb929190610c40565b506060820151816003019080519060200190610b08929190610c40565b5060808201518160040160006101000a81548160ff02191690831515021790555060a08201518160040160016101000a81548160ff02191690831515021790555090505060048054806001018281610b609190610d23565b9160005260206000209001600033909190916101000a81548173ffffffffffffffffffffffffffffffffffffffff021916908373ffffffffffffffffffffffffffffffffffffffff16021790555050600160026000828254019250508190555050505050565b600481815481101515610bd557fe5b90600052602060002090016000915054906101000a900473ffffffffffffffffffffffffffffffffffffffff1681565b608060405190810160405280610c19610d4f565b8152602001610c26610d4f565b8152602001610c33610d4f565b8152602001600081525090565b828054600181600116156101000203166002900490600052602060002090601f016020900481019282601f10610c8157805160ff1916838001178555610caf565b82800160010185558215610caf579182015b82811115610cae578251825591602001919060010190610c93565b5b509050610cbc9190610d63565b5090565b60c060405190810160405280600073ffffffffffffffffffffffffffffffffffffffff168152602001610cf1610d4f565b8152602001610cfe610d4f565b8152602001610d0b610d4f565b81526020016000151581526020016000151581525090565b815481835581811511610d4a57818360005260206000209182019101610d499190610d63565b5b505050565b602060405190810160405280600081525090565b610d8591905b80821115610d81576000816000905550600101610d69565b5090565b905600a165627a7a723058203e3775c3eca45e0409189e77647aaf5eef44db9430624b6c8ad071f4b63407ef0029",
  "source": "// SPDX-License-Identifier: GPL-3.0\npragma solidity ^0.4.17;\n// pragma experimental ABIEncoderV2;\n\ncontract MasoomContract {\n\n    address public owner;\n    uint candidateCount;\n\n    uint voterCount;\n\n    // Constructor\n    function MasoomContract() public {\n        owner = msg.sender;\n        candidateCount = 0;\n        voterCount = 0;\n    }\n\n    function getOwner() public view returns(address) {\n        return owner;\n    }\n\n    // Only Admin can access\n    modifier onlyAdmin() {\n        require(msg.sender == owner);\n        _;\n    }\n\n    struct Candidate{\n        string name;\n        string party;\n        string manifesto;\n        uint voteCount;\n    }\n\n    mapping(uint => Candidate) public candidateDetails;\n\n    // Only admin can add candidate\n    function addCandidate(string _name, string _party, string _manifesto) public onlyAdmin {\n        Candidate memory newCandidate = Candidate({\n           name : _name,\n           party : _party,\n           manifesto : _manifesto,\n           voteCount : 0\n        });\n\n        candidateDetails[candidateCount] = newCandidate;\n        candidateCount += 1;\n    }\n\n    // get total number of candidates\n    function getCandidateNumber() public view returns (uint) {\n        return candidateCount;\n    }\n\n    struct Voter{\n        address voterAddress;\n        string name;\n        string aadhar;\n        string constituency;\n        bool hasVoted;\n        bool isVerified;\n    }\n\n    address[] public voters;\n    mapping(address => Voter) public voterDetails;\n\n    // request to be added as voter\n    function requestVoter(string _name, string _aadhar, string _constituency) public {\n        Voter memory newVoter = Voter({ \n           voterAddress : msg.sender,\n           name : _name,\n           aadhar : _aadhar,\n           constituency : _constituency,\n           hasVoted : false,\n           isVerified : false\n        });\n\n        voterDetails[msg.sender] = newVoter;\n        voters.push(msg.sender);\n        voterCount += 1;\n    }\n\n    // get total number of voters\n    function getVoterCount() public view returns (uint) {\n        return voterCount;\n    }\n\n    // function getCandidates() public view returns (Candidate[] memory){\n    //     return candidates;\n    // }\n\n    // function getCandidates() public view returns (address[]) {\n    //     return candidates;\n    // }\n\n    // string public name;\n\n    // function setName(string calldata _name) external {\n    //     name = _name;\n    // }\n\n    // function getName() external view returns (string memory){\n    //     return name;\n    // }\n}",
  "sourcePath": "/Users/masoomGuest/Documents/MasoomProjects/truffle4/contracts/MasoomContract.sol",
  "compiler": {
    "name": "solc",
    "version": "0.4.17+commit.bdeb9e52.Emscripten.clang"
  },
  "schemaVersion": "3.2.0",
  "updatedAt": "2020-05-30T04:16:15.272Z",
  "networkType": "ethereum",
  "devdoc": {
    "methods": {}
  },
  "userdoc": {
    "methods": {}
  }
}